:100000000C942A000C9447000C9447000C94470071
:100010000C9447000C9447000C9447000C94470044
:100020000C9447000C9447000C9447000C94470034
:100030000C9447000C9447000C9447000C94470024
:100040000C9447000C9447000C9447000C94470014
:100050000C94470011241FBECFE5D4E0DEBFCDBF16
:1000600010E0A0E6B0E0EAEAFEE002C005900D92E2
:10007000AE36B107D9F720E0AEE6B0E001C01D9280
:10008000A237B207E1F70E9410020C9453070C94B8
:100090000000DC016D937C93E1E0F0E0DF0102C041
:1000A000AA0FBB1F4A95E2F7AD01FC01A283232BE7
:1000B00041F0DB0111968C911197482B11964C93CE
:1000C0000895FB0181814095482341830895DC0117
:1000D000ED91FC911197928112968C91892B8283DC
:1000E0000895FC01A081B1819C912281022E000C17
:1000F000330B892F90E02823392381E0232B09F447
:1001000080E00895DC01ED91FC91119792811296A7
:100110008C918095892382830895089577BD66BD6B
:100120000895662339F08FB582608FBD8EB58061EA
:100130008EBD08958FB58C7F8FBD8EB5877E8EBDA9
:100140000895623030F5442391F04FB570E0660FAA
:10015000771F27E030E0261B370B81E090E002C0DC
:10016000880F991F2A95E2F7842B8FBD08952FB52C
:1001700070E0660F771F47E050E0461B570B81E0A9
:1001800090E002C0880F991F4A95E2F7809582237C
:100190008FBD08950E94D50008958EB5887F8EBDCD
:1001A0008EB56770682B6EBD08950895CF92DF926B
:1001B000EF92FF920F931F93CF93DF937C0100E0A8
:1001C00010E0C0E0D0E0C62ED12CC6010C2E02C03B
:1001D000959587950A94E2F780FF0CC0D701169693
:1001E000ED91FC911797E00FF11F808191810E94A2
:1001F00067000BC0D7011696ED91FC911797E00FA1
:10020000F11F808191810E94820021960E5F1F4F15
:10021000C430D105D1F6F701828193810E9482001A
:10022000D70112968D919C9113970E946700F70158
:10023000828193810E9482008FE99FE00197F1F70C
:1002400000C00000DF91CF911F910F91FF90EF90C0
:10025000DF90CF9008951F93CF93DF93EC01162F7B
:10026000442329F0888199810E94670004C0888115
:1002700099810E9482008C819D810E948200612F61
:1002800070E0759567957595679575956795759502
:100290006795CE010E94D600612FCE010E94D60044
:1002A000DF91CF911F91089540E00E942B010895A6
:1002B00041E00E942B010895CF92EF920F931F937C
:1002C000CF93DF93EC01798368835B834A833D831B
:1002D0002C831F830E83E886C9868E2D90E00E94B2
:1002E0003E039C878B878FE59AEE0197F1F700C05C
:1002F00000008A819B810E948200888199810E94EE
:1003000082008C819D810E9482008FE19EE4019792
:10031000F1F700C0000063E0CE010E94D6008FE13B
:100320009EE40197F1F700C0000063E0CE010E9457
:10033000D6008FE19EE40197F1F700C0000063E072
:10034000CE010E94D6008FE19EE40197F1F700C034
:10035000000062E0CE010E94D60068E2CE010E9459
:1003600054011A8668E0CE010E945401DF91CF91BA
:100370001F910F91EF90CF900895FC016285262F79
:10038000246022876C600E945401089561E00E94FD
:1003900054018FE39FE10197F1F700C00000089539
:1003A00062E00E9454018FE39FE10197F1F700C0E2
:1003B000000008950F931F93CF93DF93EB016881A3
:1003C000662341F08C012196C8010E945801699171
:1003D0006111FACFDF91CF911F910F9108950F9383
:1003E0001F93CF93DF93CDB7DEB70F811885F80148
:1003F000608570E06F5F7F4F9E01255F3F4F4985AD
:100400005A85838594850E945F04F801638574850D
:10041000C8010E94DA01DF91CF911F910F910895D9
:10042000CF93DF93CDB7DEB7E4970FB6F894DEBF76
:100430000FBECDBFCE0101960E948D00CE01049665
:100440000E948D00CE0107960E948D005E018AE019
:10045000A80EB11CC5010E948D006E019DE0C90E61
:10046000D11CC6010E948D007E0180E1E80EF11CC6
:10047000C7010E948D008E010D5E1F4FC8010E94B2
:100480008D0021E030E040E063E370E0CE010196B2
:100490000E94490021E030E042E063E370E0CE01D9
:1004A00004960E94490021E030E041E063E370E0FF
:1004B000CE0107960E94490021E030E044E063E36A
:1004C00070E0C5010E94490021E030E045E063E3AF
:1004D00070E0C6010E94490021E030E046E063E39D
:1004E00070E0C7010E94490021E030E047E063E38B
:1004F00070E0C8010E944900BF8AAE8AD98EC88EBA
:10050000FB8EEA8E1D8F0C8F5E019EE1A90EB11C41
:100510006894CC24C1F86894EE24E4F80D5F1F4F72
:100520009E01295F3F4FAE014C5F5F4FBE016F5F81
:100530007F4FC5010E945C01C5010E94BD01C5013C
:100540000E94D001C5010E94C60186E690E09F93FB
:100550008F93BF92AF920E94EF01CE018B960E94C3
:100560008D0021E030E044E060E370E0CE018B9646
:100570000E944900CE018E960E94CA0063E0CE011F
:100580008E960E94CD0064EC79E0CE018E960E949A
:100590008E0061E0CE018E960E94910041E061E004
:1005A000CE018E960E94A100CE018F960E948D00F2
:1005B000CE01C2960E948D0021E030E040E069E368
:1005C00070E0CE018F960E94490020E030E041E0CB
:1005D00069E370E0CE01C2960E944900CE018F9679
:1005E0000E9482000F900F900F900F9075010F2EB8
:1005F000FBE6CF2EF0E0DF2EF02DCE018F960E948D
:1006000082009AE19A95F1F700C0CE018F960E9480
:10061000670085E38A95F1F70000CE018F960E946E
:10062000820000E010E0CE01C2960E947100882393
:1006300069F00C3692E0190749F087EE90E00197D7
:10064000F1F700C000000F5F1F4FEDCF8FE39CE973
:100650000197F1F700C00000C7010E94C6011F9377
:100660000F93DF92CF92FF92EF920E94EF010F90D3
:100670000F900F900F900F900F90BFCF0F931F937D
:10068000CF93DF938230910510F482E090E0E09107
:100690007000F091710020E030E0A0E0B0E0309711
:1006A00019F1408151810281138148175907C8F01F
:1006B0008417950769F4109731F012960C931297EE
:1006C00013961C9327C0009370001093710022C0F2
:1006D0002115310519F04217530718F49A01BD018D
:1006E000EF01DF01F801DBCF21153105F9F0281BFF
:1006F000390B2430310580F48A819B8161157105A5
:1007000021F0FB019383828304C090937100809356
:100710007000FE01329644C0FE01E20FF31F819388
:10072000919322503109398328833AC020916E0079
:1007300030916F00232B41F42091620030916300CF
:1007400030936F0020936E00209160003091610023
:100750002115310541F42DB73EB740916400509109
:100760006500241B350BE0916E00F0916F00E217DD
:10077000F307A0F42E1B3F0B2817390778F0AC01C4
:100780004E5F5F4F2417350748F04E0F5F1F5093A1
:100790006F0040936E008193919302C0E0E0F0E01F
:1007A000CF01DF91CF911F910F910895CF93DF93E8
:1007B000009709F481C0FC01329713821282A09144
:1007C0007000B0917100109781F420813181820F07
:1007D000931F20916E0030916F002817390751F553
:1007E000F0936F00E0936E0067C0ED0120E030E011
:1007F000CE17DF0740F44A815B819E014115510508
:10080000F1F0EA01F5CFD383C28340815181840F97
:10081000951FC817D90759F488819981840F951FAE
:100820000296918380838A819B81938382832115A1
:10083000310529F4F0937100E09370003DC0E901A7
:10084000FB83EA8349915991C40FD51FEC17FD072B
:1008500061F480819181840F951F0296E90199834B
:100860008883828193819B838A83E0E0F0E0129603
:100870008D919C911397009719F0FD01DC01F7CF42
:100880008D919C9111979D012E5F3F4F820F931F79
:1008900020916E0030916F002817390769F4309766
:1008A00029F4109271001092700002C0138212821B
:1008B000B0936F00A0936E00DF91CF910895AEE0EA
:1008C000B0E0E5E6F4E00C942A078C01FA0186E03A
:1008D0008C831A83098377FF02C060E070E8CB0144
:1008E00001979E838D83A901BF01CE0101960E94CD
:1008F0008B044D815E8157FD0AC02F8138854217D8
:1009000053070CF49A01F801E20FF31F10822E96A0
:10091000E4E00C944607ABE0B0E0E1E9F4E00C94CD
:100920001C076C017B018A01FC01178216828381FE
:1009300081FFCCC1CE0101963C01F6019381F70104
:1009400093FD859193FF81917F01882309F4BAC1BA
:10095000853239F493FD859193FF81917F01853232
:1009600029F4B60190E00E948206E7CF912C212C59
:10097000312CFFE1F315D8F08B3279F038F4803266
:1009800079F08332A1F4232D20611DC08D3261F0F6
:10099000803369F4232D216016C0832D8260382EA8
:1009A000E32DE4603E2E2AC0F32DF8601DC037FC15
:1009B0002DC020ED280F2A3040F08E32B9F436FCDD
:1009C00081C1232D2064322E19C036FE06C08AE074
:1009D000989E200D1124922E11C0EAE02E9E200D2B
:1009E0001124222EF32DF0623F2E08C08C3621F404
:1009F000832D8068382E02C0883641F4F70193FDBC
:100A0000859193FF81917F018111B3CF982F9F7DB5
:100A10009554933028F40C5F1F4F9FE399830DC0CA
:100A2000833631F0833771F0833509F059C021C026
:100A3000F801808189830E5F1F4F88248394912C55
:100A4000530113C02801F2E04F0E511CF801A080A1
:100A5000B18036FE03C0692D70E002C06FEF7FEFFA
:100A6000C5010E9477064C018201F32DFF773F2ECE
:100A700016C0280122E0420E511CF801A080B1806E
:100A800036FE03C0692D70E002C06FEF7FEFC50135
:100A90000E946C064C01F32DF0683F2E820133FC5E
:100AA0001BC0822D90E088169906B0F4B60180E252
:100AB00090E00E9482062A94F4CFF50137FC8591DC
:100AC00037FE81915F01B60190E00E9482062110FD
:100AD0002A9421E0821A91088114910471F7E8C0E8
:100AE000843611F0893641F5F80137FE07C0608180
:100AF0007181828193810C5F1F4F08C06081718179
:100B0000072E000C880B990B0E5F1F4FF32DFF76FD
:100B10003F2E97FF09C090958095709561957F4F06
:100B20008F4F9F4FF0683F2E2AE030E0A3010E94D4
:100B3000BE06882E861845C0853731F4232D2F7EBA
:100B4000B22E2AE030E025C0932D997FB92E8F3642
:100B5000C1F018F4883579F0B5C0803719F08837BE
:100B600021F0B0C0E92FE061BE2EB4FE0DC0FB2D18
:100B7000F460BF2E09C034FE0AC0292F2660B22EB1
:100B800006C028E030E005C020E130E002C020E1EE
:100B900032E0F801B7FE07C06081718182819381E4
:100BA0000C5F1F4F06C06081718180E090E00E5F96
:100BB0001F4FA3010E94BE06882E8618FB2DFF77CB
:100BC0003F2E36FE0DC0232D2E7FA22E891458F401
:100BD00034FE0BC032FC09C0832D8E7EA82E05C0CA
:100BE000B82CA32C03C0B82C01C0B92CA4FE0FC094
:100BF000FE01E80DF11D8081803321F49A2D997E4C
:100C0000A92E09C0A2FE06C0B394B39404C08A2DD5
:100C1000867809F0B394A3FC11C0A0FE06C0B214FC
:100C200088F4280C922C9B180EC0B21460F4B60104
:100C300080E290E00E948206B394F7CFB21418F4D9
:100C40002B1802C0982C212CA4FE10C0B60180E302
:100C500090E00E948206A2FE17C0A1FC03C088E7B4
:100C600090E002C088E590E0B6010CC08A2D86783D
:100C700059F0A1FE02C08BE201C080E2A7FC8DE228
:100C8000B60190E00E948206891438F4B60180E330
:100C900090E00E9482069A94F7CF8A94F301E80DBF
:100CA000F11D8081B60190E00E9482068110F5CF8F
:100CB000222009F442CEB60180E290E00E94820632
:100CC0002A94F6CFF6018681978102C08FEF9FEFBD
:100CD0002B96E2E10C943807FC01059061507040BE
:100CE0000110D8F7809590958E0F9F1F0895FC01F5
:100CF0006150704001900110D8F7809590958E0F4B
:100D00009F1F08950F931F93CF93DF93FB012381C0
:100D100021FD03C08FEF9FEF2CC022FF16C046813C
:100D20005781248135814217530744F4A081B18152
:100D30009D012F5F3F4F318320838C932681378124
:100D40002F5F3F4F3783268314C08B01EC01FB01DB
:100D50000084F185E02D0995892BE1F6D8011696DE
:100D60008D919C911797019617969C938E93169749
:100D7000CE01DF91CF911F910F910895FA01AA271B
:100D8000283051F1203181F1E8946F936E7F6E5FCE
:100D90007F4F8F4F9F4FAF4FB1E03ED0B4E03CD07C
:100DA000670F781F891F9A1FA11D680F791F8A1F5F
:100DB000911DA11D6A0F711D811D911DA11D20D0C6
:100DC00009F468943F912AE0269F11243019305D80
:100DD0003193DEF6CF010895462F4770405D419371
:100DE000B3E00FD0C9F7F6CF462F4F70405D4A33BE
:100DF00018F0495D31FD4052419302D0A9F7EACF86
:100E0000B4E0A6959795879577956795BA95C9F7B4
:100E100000976105710508959B01AC010A2E0694A7
:100E20005795479537952795BA95C9F7620F731F60
:100E3000841F951FA01D08952F923F924F925F929D
:100E40006F927F928F929F92AF92BF92CF92DF92DA
:100E5000EF92FF920F931F93CF93DF93CDB7DEB73F
:100E6000CA1BDB0B0FB6F894DEBF0FBECDBF0994D3
:100E70002A88398848885F846E847D848C849B842A
:100E8000AA84B984C884DF80EE80FD800C811B8138
:100E9000AA81B981CE0FD11D0FB6F894DEBF0FBE67
:0A0EA000CDBFED010895F894FFCFD7
:0E0EAA0000007200200068616861002564008D
:00000001FF
