:100000000C942A000C9447000C9447000C94470071
:100010000C9447000C9447000C9447000C94470044
:100020000C9447000C9447000C9447000C94470034
:100030000C9447000C9447000C9447000C94470024
:100040000C9447000C9447000C9447000C94470014
:100050000C94470011241FBECFE5D4E0DEBFCDBF16
:1000600010E0A0E6B0E0E4E8F7E002C005900D92F1
:10007000A636B107D9F720E0A6E6B0E001C01D9290
:10008000AA36B207E1F70E94BA010C94C0030C949F
:100090000000DC016D937C93E1E0F0E0DF0102C041
:1000A000AA0FBB1F4A95E2F7AD01FC01A283232BE7
:1000B00041F0DB0111968C911197482B11964C93CE
:1000C0000895FB0181814095482341830895DC0117
:1000D000ED91FC911197928112968C91892B8283DC
:1000E0000895FC01A081B1819C912281022E000C17
:1000F000330B892F90E02823392381E0232B09F447
:1001000080E00895DC01ED91FC91119792811296A7
:100110008C918095892382830895CF93DF93EC019E
:100120000E947100882321F0CE010E94820003C04A
:10013000CE010E946700DF91CF91089508956EBDB2
:1001400008958CB59DB5089508950F931F93CF938F
:10015000DF938901EC0169937993BA01CE010E9482
:100160006E02B801CE010E947F02DF91CF911F91F4
:100170000F9108950F931F93CF93DF93EC018C01A0
:100180000E5F1F4FC8010E948502882339F0C80105
:100190000E947202888199810E948D00DF91CF9127
:1001A0001F910F91089502960E949E020895CF928A
:1001B000DF92EF92FF920F931F93CF93DF937C0117
:1001C00000E010E0C0E0D0E0C62ED12CC6010C2E1D
:1001D00002C0959587950A94E2F780FF0CC0D7017D
:1001E0001696ED91FC911797E00FF11F8081918198
:1001F0000E9467000BC0D7011696ED91FC911797EE
:10020000E00FF11F808191810E94820021960E5F94
:100210001F4FC430D105D1F6F701828193810E942E
:100220008200D70112968D919C9113970E946700CE
:10023000F701828193810E9482008FE99FE00197FC
:10024000F1F700C00000DF91CF911F910F91FF9057
:10025000EF90DF90CF9008951F93CF93DF93EC0141
:10026000162F442329F0888199810E94670004C0D9
:10027000888199810E9482008C819D810E948200E8
:10028000612F70E07595679575956795759567957C
:1002900075956795CE010E94D700612FCE010E940F
:1002A000D700DF91CF911F91089540E00E942C016B
:1002B0000895CF92EF920F931F93CF93DF93EC01AA
:1002C000798368835B834A833D832C831F830E83FA
:1002D000E886C9868E2D90E00E949F029C878B87BE
:1002E0008FE59AEE0197F1F700C000008A819B81AB
:1002F0000E948200888199810E9482008C819D8168
:100300000E9482008FE19EE40197F1F700C0000097
:1003100063E0CE010E94D7008FE19EE40197F1F7E0
:1003200000C0000063E0CE010E94D7008FE19EE490
:100330000197F1F700C0000063E0CE010E94D700F2
:100340008FE19EE40197F1F700C0000062E0CE016A
:100350000E94D70068E2CE010E9455011A8668E02B
:10036000CE010E945501DF91CF911F910F91EF9027
:10037000CF900895CF93DF93CDB7DEB7E7970FB651
:10038000F894DEBF0FBECDBFCE0101960E94D30010
:10039000CE010A960E949E00CE010D960E94A400F6
:1003A00021E030E040E066E370E0CE010A960E9472
:1003B000490064E0CE010D960E949F0020E335E7DE
:1003C000AE01435F5F4FBE01665F7F4FCE01019676
:1003D0000E94A500CE010E960E949E00CE0141967D
:1003E0000E949E00CE0144960E949E005E0187E11D
:1003F000A80EB11CC5010E949E006E018AE1C80EC4
:10040000D11CC6010E949E007E018DE1E80EF11C08
:10041000C7010E949E008E01005E1F4FC8010E940E
:100420009E0021E030E040E063E370E0CE010E96F4
:100430000E94490021E030E041E063E370E0CE013A
:1004400041960E94490021E030E042E063E370E021
:10045000CE0144960E94490021E030E044E063E38D
:1004600070E0C5010E94490021E030E045E063E30F
:1004700070E0C6010E94490021E030E046E063E3FD
:1004800070E0C7010E94490021E030E047E063E3EB
:1004900070E0C8010E944900BCA2ABA2DEA2CDA2BE
:1004A000F8A6EFA21AA709A76894CC24C1F868940B
:1004B000EE24E4F80D5F1F4F9E012C5E3F4FAE010E
:1004C0004F5E5F4FBE01625F7F4FCE018B960E94F1
:1004D0005901CE0101960E94BA00FBCFFC01718345
:1004E00060830895CF93DF93EC01888199810E9406
:1004F000A1009D838C831E82DF91CF910895FC0122
:10050000738362830E9472020895CF93DF93EC019C
:100510008E8181110FC0888199810E94A1002C8158
:100520003D81821B930B2A813B818217930710F038
:1005300081E08E838E81DF91CF91089508950F938E
:100540001F93CF93DF938230910510F482E090E007
:10055000E0916800F091690020E030E0A0E0B0E0B8
:10056000309719F140815181028113814817590751
:10057000C8F08417950769F4109731F012960C9320
:10058000129713961C9327C000936800109369007C
:1005900022C02115310519F04217530718F49A01AA
:1005A000BD01EF01DF01F801DBCF21153105F9F0C5
:1005B000281B390B2430310580F48A819B81611519
:1005C000710521F0FB019383828304C0909369003D
:1005D00080936800FE01329644C0FE01E20FF31FD3
:1005E0008193919322503109398328833AC0209115
:1005F000660030916700232B41F420916200309116
:100600006300309367002093660020916000309172
:1006100061002115310541F42DB73EB740916400CA
:1006200050916500241B350BE0916600F091670046
:10063000E217F307A0F42E1B3F0B2817390778F0B9
:10064000AC014E5F5F4F2417350748F04E0F5F1F18
:1006500050936700409366008193919302C0E0E05D
:10066000F0E0CF01DF91CF911F910F910895CF93CB
:10067000DF93009709F481C0FC0132971382128244
:10068000A0916800B0916900109781F420813181B8
:10069000820F931F20916600309167002817390759
:1006A00051F5F0936700E093660067C0ED0120E02C
:1006B00030E0CE17DF0740F44A815B819E0141158F
:1006C0005105F1F0EA01F5CFD383C2834081518116
:1006D000840F951FC817D90759F488819981840F11
:1006E000951F0296918380838A819B819383828365
:1006F0002115310529F4F0936900E09368003DC0AD
:10070000E901FB83EA8349915991C40FD51FEC1786
:10071000FD0761F480819181840F951F0296E901A4
:1007200099838883828193819B838A83E0E0F0E0D0
:1007300012968D919C911397009719F0FD01DC01A1
:10074000F7CF8D919C9111979D012E5F3F4F820FA6
:10075000931F20916600309167002817390769F4CC
:10076000309729F4109269001092680002C0138239
:100770001282B0936700A0936600DF91CF91089535
:04078000F894FFCF1B
:0607840000006A002000E5
:00000001FF
